8=FIX.4.2^A9=64^A35=A^A34=1^A49=CLIENT1^A52=20040521-13:26:51.000^A56=TW^A98=0^A108=30^A10=137^A
8=FIX.4.2^A9=113^A35=D^A34=2^A49=CLIENT1^A52=20040521-13:27:00.000^A56=TW^A11=1^A21=1^A38=100^A40=1^A54=1^A55=DELL^A59=0^A60=20040521-13:27:00^A10=199^A
8=FIX.4.2^A9=121^A35=D^A34=3^A49=CLIENT1^A52=20040521-13:27:16.000^A56=TW^A11=2^A21=1^A38=100^A40=2^A44=43.2^A54=1^A55=DELL^A59=0^A60=20040521-13:27:16^A10=068^A
This is junk and should be ignored!!!!
8=FIX.4.2^A9=121^A35=D^A34=4^A49=CLIENT1^A52=20040521-13:27:25.000^A56=TW^A11=3^A21=1^A38=200^A40=2^A44=43.2^A54=2^A55=DELL^A59=0^A60=20040521-13:27:25^A10=072^A
8=FIX.4.2^A9=103^A35=F^A34=5^A49=CLIENT1^A52=20040521-13:27:30.000^A56=TW^A11=4^A38=200^A41=3^A54=2^A55=DELL^A60=20040521-13:27:30^A10=043^A
8=FIX.4.2^A9=64^A35=A^A34=1^A49=CLIENT2^A52=20040521-13:26:51.000^A56=TW^A98=0^A108=30^A10=138^A
8=FIX.4.2^A9=52^A35=0^A34=2^A49=CLIENT2^A52=20040521-13:27:21.000^A56=TW^A10=092^A
8=FIX.4.2^A9=52^A35=0^A34=3^A49=CLIENT2^A52=20040521-13:27:51.000^A56=TW^A10=096^A
We should be smart enough to parse this!!! 8=FIX.4.2^A9=52^A35=0^A34=3^A49=CLIENT2^A52=20040521-13:27:51.000^A56=TW^A10=096^A
8=FIX.4.2^A9=64^A35=A^A34=1^A49=TW^A52=20040521-13:26:51.000^A56=CLIENT1^A98=0^A108=30^A10=137^A
8=FIX.4.2^A9=148^A35=8^A34=2^A49=TW^A52=20040521-13:27:01.000^A56=CLIENT1^A6=0^A11=1^A14=0^A17=1^A20=0^A37=1^A39=8^A54=1^A55=DELL^A58=Unsupported Order Type, use limit^A150=8^A151=0^A10=253^A
8=FIX.4.2^A9=120^A35=8^A34=3^A49=TW^A52=20040521-13:27:16.000^A56=CLIENT1^A6=0^A11=2^A14=0^A17=2^A20=0^A37=2^A38=100^A39=0^A54=1^A55=DELL^A150=0^A151=100^A10=126^A
8=FIX.4.2^A9=120^A35=8^A34=4^A49=TW^A52=20040521-13:27:25.000^A56=CLIENT1^A6=0^A11=3^A14=0^A17=3^A20=0^A37=3^A38=200^A39=0^A54=2^A55=DELL^A150=0^A151=200^A10=133^A
8=FIX.4.2^A9=138^A35=8^A34=5^A49=TW^A52=20040521-13:27:25.000^A56=CLIENT1^A6=43.2^A11=2^A14=100^A17=4^A20=0^A31=43.2^A32=100^A37=2^A38=100^A39=2^A54=1^A55=DELL^A150=2^A151=0^A10=195^A
8=FIX.4.2^A9=140^A35=8^A34=6^A49=TW^A52=20040521-13:27:25.000^A56=CLIENT1^A6=43.2^A11=3^A14=100^A17=5^A20=0^A31=43.2^A32=100^A37=3^A38=200^A39=1^A54=2^A55=DELL^A150=1^A151=100^A10=033^A
8=FIX.4.2^A9=123^A35=8^A34=7^A49=TW^A52=20040521-13:27:30.000^A56=CLIENT1^A6=43.2^A11=3^A14=100^A17=6^A20=0^A37=3^A38=200^A39=4^A54=2^A55=DELL^A150=4^A151=0^A10=040^A
8=FIX.4.2^A9=64^A35=A^A34=1^A49=TW^A52=20040521-13:26:51.000^A56=CLIENT2^A98=0^A108=30^A10=138^A
8=FIX.4.2^A9=52^A35=0^A34=2^A49=TW^A52=20040521-13:27:22.000^A56=CLIENT2^A10=093^A
The next message has no trailing SOH
8=FIX.4.2^A9=52^A35=0^A34=2^A49=TW^A52=20040521-13:27:22.000^A56=CLIENT2^A10=093
8=FIX.4.2^A9=52^A35=0^A34=3^A49=TW^A52=20040521-14:27:52.000^A56=CLIENT2^A10=097^A
